{
  "_format": "hh-sol-artifact-1",
  "contractName": "NBL_NFT",
  "sourceName": "contracts/NBL_NFT.sol",
  "abi": [
    {
      "inputs": [
        {
          "internalType": "string",
          "name": "name",
          "type": "string"
        },
        {
          "internalType": "string",
          "name": "symbol",
          "type": "string"
        }
      ],
      "stateMutability": "nonpayable",
      "type": "constructor"
    },
    {
      "inputs": [
        {
          "internalType": "address",
          "name": "sender",
          "type": "address"
        },
        {
          "internalType": "uint256",
          "name": "tokenId",
          "type": "uint256"
        },
        {
          "internalType": "address",
          "name": "owner",
          "type": "address"
        }
      ],
      "name": "ERC721IncorrectOwner",
      "type": "error"
    },
    {
      "inputs": [
        {
          "internalType": "address",
          "name": "operator",
          "type": "address"
        },
        {
          "internalType": "uint256",
          "name": "tokenId",
          "type": "uint256"
        }
      ],
      "name": "ERC721InsufficientApproval",
      "type": "error"
    },
    {
      "inputs": [
        {
          "internalType": "address",
          "name": "approver",
          "type": "address"
        }
      ],
      "name": "ERC721InvalidApprover",
      "type": "error"
    },
    {
      "inputs": [
        {
          "internalType": "address",
          "name": "operator",
          "type": "address"
        }
      ],
      "name": "ERC721InvalidOperator",
      "type": "error"
    },
    {
      "inputs": [
        {
          "internalType": "address",
          "name": "owner",
          "type": "address"
        }
      ],
      "name": "ERC721InvalidOwner",
      "type": "error"
    },
    {
      "inputs": [
        {
          "internalType": "address",
          "name": "receiver",
          "type": "address"
        }
      ],
      "name": "ERC721InvalidReceiver",
      "type": "error"
    },
    {
      "inputs": [
        {
          "internalType": "address",
          "name": "sender",
          "type": "address"
        }
      ],
      "name": "ERC721InvalidSender",
      "type": "error"
    },
    {
      "inputs": [
        {
          "internalType": "uint256",
          "name": "tokenId",
          "type": "uint256"
        }
      ],
      "name": "ERC721NonexistentToken",
      "type": "error"
    },
    {
      "anonymous": false,
      "inputs": [
        {
          "indexed": true,
          "internalType": "address",
          "name": "owner",
          "type": "address"
        },
        {
          "indexed": true,
          "internalType": "address",
          "name": "approved",
          "type": "address"
        },
        {
          "indexed": true,
          "internalType": "uint256",
          "name": "tokenId",
          "type": "uint256"
        }
      ],
      "name": "Approval",
      "type": "event"
    },
    {
      "anonymous": false,
      "inputs": [
        {
          "indexed": true,
          "internalType": "address",
          "name": "owner",
          "type": "address"
        },
        {
          "indexed": true,
          "internalType": "address",
          "name": "operator",
          "type": "address"
        },
        {
          "indexed": false,
          "internalType": "bool",
          "name": "approved",
          "type": "bool"
        }
      ],
      "name": "ApprovalForAll",
      "type": "event"
    },
    {
      "anonymous": false,
      "inputs": [
        {
          "indexed": true,
          "internalType": "address",
          "name": "from",
          "type": "address"
        },
        {
          "indexed": true,
          "internalType": "address",
          "name": "to",
          "type": "address"
        },
        {
          "indexed": true,
          "internalType": "uint256",
          "name": "tokenId",
          "type": "uint256"
        }
      ],
      "name": "Transfer",
      "type": "event"
    },
    {
      "inputs": [
        {
          "internalType": "address",
          "name": "to",
          "type": "address"
        },
        {
          "internalType": "uint256",
          "name": "tokenId",
          "type": "uint256"
        }
      ],
      "name": "approve",
      "outputs": [],
      "stateMutability": "nonpayable",
      "type": "function"
    },
    {
      "inputs": [
        {
          "internalType": "address",
          "name": "owner",
          "type": "address"
        }
      ],
      "name": "balanceOf",
      "outputs": [
        {
          "internalType": "uint256",
          "name": "",
          "type": "uint256"
        }
      ],
      "stateMutability": "view",
      "type": "function"
    },
    {
      "inputs": [
        {
          "internalType": "uint256",
          "name": "tokenId",
          "type": "uint256"
        }
      ],
      "name": "getApproved",
      "outputs": [
        {
          "internalType": "address",
          "name": "",
          "type": "address"
        }
      ],
      "stateMutability": "view",
      "type": "function"
    },
    {
      "inputs": [
        {
          "internalType": "address",
          "name": "owner",
          "type": "address"
        },
        {
          "internalType": "address",
          "name": "operator",
          "type": "address"
        }
      ],
      "name": "isApprovedForAll",
      "outputs": [
        {
          "internalType": "bool",
          "name": "",
          "type": "bool"
        }
      ],
      "stateMutability": "view",
      "type": "function"
    },
    {
      "inputs": [
        {
          "internalType": "address",
          "name": "recipient",
          "type": "address"
        }
      ],
      "name": "mint",
      "outputs": [
        {
          "internalType": "uint256",
          "name": "",
          "type": "uint256"
        }
      ],
      "stateMutability": "nonpayable",
      "type": "function"
    },
    {
      "inputs": [],
      "name": "name",
      "outputs": [
        {
          "internalType": "string",
          "name": "",
          "type": "string"
        }
      ],
      "stateMutability": "view",
      "type": "function"
    },
    {
      "inputs": [
        {
          "internalType": "uint256",
          "name": "tokenId",
          "type": "uint256"
        }
      ],
      "name": "ownerOf",
      "outputs": [
        {
          "internalType": "address",
          "name": "",
          "type": "address"
        }
      ],
      "stateMutability": "view",
      "type": "function"
    },
    {
      "inputs": [
        {
          "internalType": "address",
          "name": "from",
          "type": "address"
        },
        {
          "internalType": "address",
          "name": "to",
          "type": "address"
        },
        {
          "internalType": "uint256",
          "name": "tokenId",
          "type": "uint256"
        }
      ],
      "name": "safeTransferFrom",
      "outputs": [],
      "stateMutability": "nonpayable",
      "type": "function"
    },
    {
      "inputs": [
        {
          "internalType": "address",
          "name": "from",
          "type": "address"
        },
        {
          "internalType": "address",
          "name": "to",
          "type": "address"
        },
        {
          "internalType": "uint256",
          "name": "tokenId",
          "type": "uint256"
        },
        {
          "internalType": "bytes",
          "name": "data",
          "type": "bytes"
        }
      ],
      "name": "safeTransferFrom",
      "outputs": [],
      "stateMutability": "nonpayable",
      "type": "function"
    },
    {
      "inputs": [
        {
          "internalType": "address",
          "name": "operator",
          "type": "address"
        },
        {
          "internalType": "bool",
          "name": "approved",
          "type": "bool"
        }
      ],
      "name": "setApprovalForAll",
      "outputs": [],
      "stateMutability": "nonpayable",
      "type": "function"
    },
    {
      "inputs": [
        {
          "internalType": "bytes4",
          "name": "interfaceId",
          "type": "bytes4"
        }
      ],
      "name": "supportsInterface",
      "outputs": [
        {
          "internalType": "bool",
          "name": "",
          "type": "bool"
        }
      ],
      "stateMutability": "view",
      "type": "function"
    },
    {
      "inputs": [],
      "name": "symbol",
      "outputs": [
        {
          "internalType": "string",
          "name": "",
          "type": "string"
        }
      ],
      "stateMutability": "view",
      "type": "function"
    },
    {
      "inputs": [],
      "name": "tokenCounter",
      "outputs": [
        {
          "internalType": "uint256",
          "name": "",
          "type": "uint256"
        }
      ],
      "stateMutability": "view",
      "type": "function"
    },
    {
      "inputs": [
        {
          "internalType": "uint256",
          "name": "tokenId",
          "type": "uint256"
        }
      ],
      "name": "tokenURI",
      "outputs": [
        {
          "internalType": "string",
          "name": "",
          "type": "string"
        }
      ],
      "stateMutability": "view",
      "type": "function"
    },
    {
      "inputs": [
        {
          "internalType": "address",
          "name": "from",
          "type": "address"
        },
        {
          "internalType": "address",
          "name": "to",
          "type": "address"
        },
        {
          "internalType": "uint256",
          "name": "tokenId",
          "type": "uint256"
        }
      ],
      "name": "transferFrom",
      "outputs": [],
      "stateMutability": "nonpayable",
      "type": "function"
    }
  ],
  "bytecode": "0x60806040523480156200001157600080fd5b506040516200249c3803806200249c833981810160405281019062000037919062000202565b818181600090816200004a9190620004d2565b5080600190816200005c9190620004d2565b50505060006006819055505050620005b9565b6000604051905090565b600080fd5b600080fd5b600080fd5b600080fd5b6000601f19601f8301169050919050565b7f4e487b7100000000000000000000000000000000000000000000000000000000600052604160045260246000fd5b620000d8826200008d565b810181811067ffffffffffffffff82111715620000fa57620000f96200009e565b5b80604052505050565b60006200010f6200006f565b90506200011d8282620000cd565b919050565b600067ffffffffffffffff82111562000140576200013f6200009e565b5b6200014b826200008d565b9050602081019050919050565b60005b83811015620001785780820151818401526020810190506200015b565b60008484015250505050565b60006200019b620001958462000122565b62000103565b905082815260208101848484011115620001ba57620001b962000088565b5b620001c784828562000158565b509392505050565b600082601f830112620001e757620001e662000083565b5b8151620001f984826020860162000184565b91505092915050565b600080604083850312156200021c576200021b62000079565b5b600083015167ffffffffffffffff8111156200023d576200023c6200007e565b5b6200024b85828601620001cf565b925050602083015167ffffffffffffffff8111156200026f576200026e6200007e565b5b6200027d85828601620001cf565b9150509250929050565b600081519050919050565b7f4e487b7100000000000000000000000000000000000000000000000000000000600052602260045260246000fd5b60006002820490506001821680620002da57607f821691505b602082108103620002f057620002ef62000292565b5b50919050565b60008190508160005260206000209050919050565b60006020601f8301049050919050565b600082821b905092915050565b6000600883026200035a7fffffffffffffffffffffffffffffffffffffffffffffffffffffffffffffffff826200031b565b6200036686836200031b565b95508019841693508086168417925050509392505050565b6000819050919050565b6000819050919050565b6000620003b3620003ad620003a7846200037e565b62000388565b6200037e565b9050919050565b6000819050919050565b620003cf8362000392565b620003e7620003de82620003ba565b84845462000328565b825550505050565b600090565b620003fe620003ef565b6200040b818484620003c4565b505050565b5b81811015620004335762000427600082620003f4565b60018101905062000411565b5050565b601f82111562000482576200044c81620002f6565b62000457846200030b565b8101602085101562000467578190505b6200047f62000476856200030b565b83018262000410565b50505b505050565b600082821c905092915050565b6000620004a76000198460080262000487565b1980831691505092915050565b6000620004c2838362000494565b9150826002028217905092915050565b620004dd8262000287565b67ffffffffffffffff811115620004f957620004f86200009e565b5b620005058254620002c1565b6200051282828562000437565b600060209050601f8311600181146200054a576000841562000535578287015190505b620005418582620004b4565b865550620005b1565b601f1984166200055a86620002f6565b60005b8281101562000584578489015182556001820191506020850194506020810190506200055d565b86831015620005a45784890151620005a0601f89168262000494565b8355505b6001600288020188555050505b505050505050565b611ed380620005c96000396000f3fe608060405234801561001057600080fd5b50600436106100f55760003560e01c80636a62784211610097578063b88d4fde11610066578063b88d4fde14610296578063c87b56dd146102b2578063d082e381146102e2578063e985e9c514610300576100f5565b80636a627842146101fc57806370a082311461022c57806395d89b411461025c578063a22cb4651461027a576100f5565b8063095ea7b3116100d3578063095ea7b31461017857806323b872dd1461019457806342842e0e146101b05780636352211e146101cc576100f5565b806301ffc9a7146100fa57806306fdde031461012a578063081812fc14610148575b600080fd5b610114600480360381019061010f91906116a6565b610330565b60405161012191906116ee565b60405180910390f35b610132610412565b60405161013f9190611799565b60405180910390f35b610162600480360381019061015d91906117f1565b6104a4565b60405161016f919061185f565b60405180910390f35b610192600480360381019061018d91906118a6565b6104c0565b005b6101ae60048036038101906101a991906118e6565b6104d6565b005b6101ca60048036038101906101c591906118e6565b6105d8565b005b6101e660048036038101906101e191906117f1565b6105f8565b6040516101f3919061185f565b60405180910390f35b61021660048036038101906102119190611939565b61060a565b6040516102239190611975565b60405180910390f35b61024660048036038101906102419190611939565b61063d565b6040516102539190611975565b60405180910390f35b6102646106f7565b6040516102719190611799565b60405180910390f35b610294600480360381019061028f91906119bc565b610789565b005b6102b060048036038101906102ab9190611b31565b61079f565b005b6102cc60048036038101906102c791906117f1565b6107bc565b6040516102d99190611799565b60405180910390f35b6102ea610825565b6040516102f79190611975565b60405180910390f35b61031a60048036038101906103159190611bb4565b61082b565b60405161032791906116ee565b60405180910390f35b60007f80ac58cd000000000000000000000000000000000000000000000000000000007bffffffffffffffffffffffffffffffffffffffffffffffffffffffff1916827bffffffffffffffffffffffffffffffffffffffffffffffffffffffff191614806103fb57507f5b5e139f000000000000000000000000000000000000000000000000000000007bffffffffffffffffffffffffffffffffffffffffffffffffffffffff1916827bffffffffffffffffffffffffffffffffffffffffffffffffffffffff1916145b8061040b575061040a826108bf565b5b9050919050565b60606000805461042190611c23565b80601f016020809104026020016040519081016040528092919081815260200182805461044d90611c23565b801561049a5780601f1061046f5761010080835404028352916020019161049a565b820191906000526020600020905b81548152906001019060200180831161047d57829003601f168201915b5050505050905090565b60006104af82610929565b506104b9826109b1565b9050919050565b6104d282826104cd6109ee565b6109f6565b5050565b600073ffffffffffffffffffffffffffffffffffffffff168273ffffffffffffffffffffffffffffffffffffffff16036105485760006040517f64a0ae9200000000000000000000000000000000000000000000000000000000815260040161053f919061185f565b60405180910390fd5b600061055c83836105576109ee565b610a08565b90508373ffffffffffffffffffffffffffffffffffffffff168173ffffffffffffffffffffffffffffffffffffffff16146105d2578382826040517f64283d7b0000000000000000000000000000000000000000000000000000000081526004016105c993929190611c54565b60405180910390fd5b50505050565b6105f38383836040518060200160405280600081525061079f565b505050565b600061060382610929565b9050919050565b600080600654905061061c8382610c22565b6006600081548092919061062f90611cba565b919050555080915050919050565b60008073ffffffffffffffffffffffffffffffffffffffff168273ffffffffffffffffffffffffffffffffffffffff16036106b05760006040517f89c62b640000000000000000000000000000000000000000000000000000000081526004016106a7919061185f565b60405180910390fd5b600360008373ffffffffffffffffffffffffffffffffffffffff1673ffffffffffffffffffffffffffffffffffffffff168152602001908152602001600020549050919050565b60606001805461070690611c23565b80601f016020809104026020016040519081016040528092919081815260200182805461073290611c23565b801561077f5780601f106107545761010080835404028352916020019161077f565b820191906000526020600020905b81548152906001019060200180831161076257829003601f168201915b5050505050905090565b61079b6107946109ee565b8383610c40565b5050565b6107aa8484846104d6565b6107b684848484610daf565b50505050565b60606107c782610929565b5060006107d2610f66565b905060008151116107f2576040518060200160405280600081525061081d565b806107fc84610f7d565b60405160200161080d929190611d3e565b6040516020818303038152906040525b915050919050565b60065481565b6000600560008473ffffffffffffffffffffffffffffffffffffffff1673ffffffffffffffffffffffffffffffffffffffff16815260200190815260200160002060008373ffffffffffffffffffffffffffffffffffffffff1673ffffffffffffffffffffffffffffffffffffffff16815260200190815260200160002060009054906101000a900460ff16905092915050565b60007f01ffc9a7000000000000000000000000000000000000000000000000000000007bffffffffffffffffffffffffffffffffffffffffffffffffffffffff1916827bffffffffffffffffffffffffffffffffffffffffffffffffffffffff1916149050919050565b6000806109358361104b565b9050600073ffffffffffffffffffffffffffffffffffffffff168173ffffffffffffffffffffffffffffffffffffffff16036109a857826040517f7e27328900000000000000000000000000000000000000000000000000000000815260040161099f9190611975565b60405180910390fd5b80915050919050565b60006004600083815260200190815260200160002060009054906101000a900473ffffffffffffffffffffffffffffffffffffffff169050919050565b600033905090565b610a038383836001611088565b505050565b600080610a148461104b565b9050600073ffffffffffffffffffffffffffffffffffffffff168373ffffffffffffffffffffffffffffffffffffffff1614610a5657610a5581848661124d565b5b600073ffffffffffffffffffffffffffffffffffffffff168173ffffffffffffffffffffffffffffffffffffffff1614610ae757610a98600085600080611088565b6001600360008373ffffffffffffffffffffffffffffffffffffffff1673ffffffffffffffffffffffffffffffffffffffff168152602001908152602001600020600082825403925050819055505b600073ffffffffffffffffffffffffffffffffffffffff168573ffffffffffffffffffffffffffffffffffffffff1614610b6a576001600360008773ffffffffffffffffffffffffffffffffffffffff1673ffffffffffffffffffffffffffffffffffffffff168152602001908152602001600020600082825401925050819055505b846002600086815260200190815260200160002060006101000a81548173ffffffffffffffffffffffffffffffffffffffff021916908373ffffffffffffffffffffffffffffffffffffffff160217905550838573ffffffffffffffffffffffffffffffffffffffff168273ffffffffffffffffffffffffffffffffffffffff167fddf252ad1be2c89b69c2b068fc378daa952ba7f163c4a11628f55a4df523b3ef60405160405180910390a4809150509392505050565b610c3c828260405180602001604052806000815250611311565b5050565b600073ffffffffffffffffffffffffffffffffffffffff168273ffffffffffffffffffffffffffffffffffffffff1603610cb157816040517f5b08ba18000000000000000000000000000000000000000000000000000000008152600401610ca8919061185f565b60405180910390fd5b80600560008573ffffffffffffffffffffffffffffffffffffffff1673ffffffffffffffffffffffffffffffffffffffff16815260200190815260200160002060008473ffffffffffffffffffffffffffffffffffffffff1673ffffffffffffffffffffffffffffffffffffffff16815260200190815260200160002060006101000a81548160ff0219169083151502179055508173ffffffffffffffffffffffffffffffffffffffff168373ffffffffffffffffffffffffffffffffffffffff167f17307eab39ab6107e8899845ad3d59bd9653f200f220920489ca2b5937696c3183604051610da291906116ee565b60405180910390a3505050565b60008373ffffffffffffffffffffffffffffffffffffffff163b1115610f60578273ffffffffffffffffffffffffffffffffffffffff1663150b7a02610df36109ee565b8685856040518563ffffffff1660e01b8152600401610e159493929190611db7565b6020604051808303816000875af1925050508015610e5157506040513d601f19601f82011682018060405250810190610e4e9190611e18565b60015b610ed5573d8060008114610e81576040519150601f19603f3d011682016040523d82523d6000602084013e610e86565b606091505b506000815103610ecd57836040517f64a0ae92000000000000000000000000000000000000000000000000000000008152600401610ec4919061185f565b60405180910390fd5b805181602001fd5b63150b7a0260e01b7bffffffffffffffffffffffffffffffffffffffffffffffffffffffff1916817bffffffffffffffffffffffffffffffffffffffffffffffffffffffff191614610f5e57836040517f64a0ae92000000000000000000000000000000000000000000000000000000008152600401610f55919061185f565b60405180910390fd5b505b50505050565b606060405180602001604052806000815250905090565b606060006001610f8c8461132d565b01905060008167ffffffffffffffff811115610fab57610faa611a06565b5b6040519080825280601f01601f191660200182016040528015610fdd5781602001600182028036833780820191505090505b509050600082602001820190505b600115611040578080600190039150507f3031323334353637383961626364656600000000000000000000000000000000600a86061a8153600a858161103457611033611e45565b5b04945060008503610feb575b819350505050919050565b60006002600083815260200190815260200160002060009054906101000a900473ffffffffffffffffffffffffffffffffffffffff169050919050565b80806110c15750600073ffffffffffffffffffffffffffffffffffffffff168273ffffffffffffffffffffffffffffffffffffffff1614155b156111f55760006110d184610929565b9050600073ffffffffffffffffffffffffffffffffffffffff168373ffffffffffffffffffffffffffffffffffffffff161415801561113c57508273ffffffffffffffffffffffffffffffffffffffff168173ffffffffffffffffffffffffffffffffffffffff1614155b801561114f575061114d818461082b565b155b1561119157826040517fa9fbf51f000000000000000000000000000000000000000000000000000000008152600401611188919061185f565b60405180910390fd5b81156111f357838573ffffffffffffffffffffffffffffffffffffffff168273ffffffffffffffffffffffffffffffffffffffff167f8c5be1e5ebec7d5bd14f71427d1e84f3dd0314c0f7b2291e5b200ac8c7c3b92560405160405180910390a45b505b836004600085815260200190815260200160002060006101000a81548173ffffffffffffffffffffffffffffffffffffffff021916908373ffffffffffffffffffffffffffffffffffffffff16021790555050505050565b611258838383611480565b61130c57600073ffffffffffffffffffffffffffffffffffffffff168373ffffffffffffffffffffffffffffffffffffffff16036112cd57806040517f7e2732890000000000000000000000000000000000000000000000000000000081526004016112c49190611975565b60405180910390fd5b81816040517f177e802f000000000000000000000000000000000000000000000000000000008152600401611303929190611e74565b60405180910390fd5b505050565b61131b8383611541565b6113286000848484610daf565b505050565b600080600090507a184f03e93ff9f4daa797ed6e38ed64bf6a1f010000000000000000831061138b577a184f03e93ff9f4daa797ed6e38ed64bf6a1f010000000000000000838161138157611380611e45565b5b0492506040810190505b6d04ee2d6d415b85acef810000000083106113c8576d04ee2d6d415b85acef810000000083816113be576113bd611e45565b5b0492506020810190505b662386f26fc1000083106113f757662386f26fc1000083816113ed576113ec611e45565b5b0492506010810190505b6305f5e1008310611420576305f5e100838161141657611415611e45565b5b0492506008810190505b612710831061144557612710838161143b5761143a611e45565b5b0492506004810190505b60648310611468576064838161145e5761145d611e45565b5b0492506002810190505b600a8310611477576001810190505b80915050919050565b60008073ffffffffffffffffffffffffffffffffffffffff168373ffffffffffffffffffffffffffffffffffffffff161415801561153857508273ffffffffffffffffffffffffffffffffffffffff168473ffffffffffffffffffffffffffffffffffffffff1614806114f957506114f8848461082b565b5b8061153757508273ffffffffffffffffffffffffffffffffffffffff1661151f836109b1565b73ffffffffffffffffffffffffffffffffffffffff16145b5b90509392505050565b600073ffffffffffffffffffffffffffffffffffffffff168273ffffffffffffffffffffffffffffffffffffffff16036115b35760006040517f64a0ae920000000000000000000000000000000000000000000000000000000081526004016115aa919061185f565b60405180910390fd5b60006115c183836000610a08565b9050600073ffffffffffffffffffffffffffffffffffffffff168173ffffffffffffffffffffffffffffffffffffffff16146116355760006040517f73c6ac6e00000000000000000000000000000000000000000000000000000000815260040161162c919061185f565b60405180910390fd5b505050565b6000604051905090565b600080fd5b600080fd5b60007fffffffff0000000000000000000000000000000000000000000000000000000082169050919050565b6116838161164e565b811461168e57600080fd5b50565b6000813590506116a08161167a565b92915050565b6000602082840312156116bc576116bb611644565b5b60006116ca84828501611691565b91505092915050565b60008115159050919050565b6116e8816116d3565b82525050565b600060208201905061170360008301846116df565b92915050565b600081519050919050565b600082825260208201905092915050565b60005b83811015611743578082015181840152602081019050611728565b60008484015250505050565b6000601f19601f8301169050919050565b600061176b82611709565b6117758185611714565b9350611785818560208601611725565b61178e8161174f565b840191505092915050565b600060208201905081810360008301526117b38184611760565b905092915050565b6000819050919050565b6117ce816117bb565b81146117d957600080fd5b50565b6000813590506117eb816117c5565b92915050565b60006020828403121561180757611806611644565b5b6000611815848285016117dc565b91505092915050565b600073ffffffffffffffffffffffffffffffffffffffff82169050919050565b60006118498261181e565b9050919050565b6118598161183e565b82525050565b60006020820190506118746000830184611850565b92915050565b6118838161183e565b811461188e57600080fd5b50565b6000813590506118a08161187a565b92915050565b600080604083850312156118bd576118bc611644565b5b60006118cb85828601611891565b92505060206118dc858286016117dc565b9150509250929050565b6000806000606084860312156118ff576118fe611644565b5b600061190d86828701611891565b935050602061191e86828701611891565b925050604061192f868287016117dc565b9150509250925092565b60006020828403121561194f5761194e611644565b5b600061195d84828501611891565b91505092915050565b61196f816117bb565b82525050565b600060208201905061198a6000830184611966565b92915050565b611999816116d3565b81146119a457600080fd5b50565b6000813590506119b681611990565b92915050565b600080604083850312156119d3576119d2611644565b5b60006119e185828601611891565b92505060206119f2858286016119a7565b9150509250929050565b600080fd5b600080fd5b7f4e487b7100000000000000000000000000000000000000000000000000000000600052604160045260246000fd5b611a3e8261174f565b810181811067ffffffffffffffff82111715611a5d57611a5c611a06565b5b80604052505050565b6000611a7061163a565b9050611a7c8282611a35565b919050565b600067ffffffffffffffff821115611a9c57611a9b611a06565b5b611aa58261174f565b9050602081019050919050565b82818337600083830152505050565b6000611ad4611acf84611a81565b611a66565b905082815260208101848484011115611af057611aef611a01565b5b611afb848285611ab2565b509392505050565b600082601f830112611b1857611b176119fc565b5b8135611b28848260208601611ac1565b91505092915050565b60008060008060808587031215611b4b57611b4a611644565b5b6000611b5987828801611891565b9450506020611b6a87828801611891565b9350506040611b7b878288016117dc565b925050606085013567ffffffffffffffff811115611b9c57611b9b611649565b5b611ba887828801611b03565b91505092959194509250565b60008060408385031215611bcb57611bca611644565b5b6000611bd985828601611891565b9250506020611bea85828601611891565b9150509250929050565b7f4e487b7100000000000000000000000000000000000000000000000000000000600052602260045260246000fd5b60006002820490506001821680611c3b57607f821691505b602082108103611c4e57611c4d611bf4565b5b50919050565b6000606082019050611c696000830186611850565b611c766020830185611966565b611c836040830184611850565b949350505050565b7f4e487b7100000000000000000000000000000000000000000000000000000000600052601160045260246000fd5b6000611cc5826117bb565b91507fffffffffffffffffffffffffffffffffffffffffffffffffffffffffffffffff8203611cf757611cf6611c8b565b5b600182019050919050565b600081905092915050565b6000611d1882611709565b611d228185611d02565b9350611d32818560208601611725565b80840191505092915050565b6000611d4a8285611d0d565b9150611d568284611d0d565b91508190509392505050565b600081519050919050565b600082825260208201905092915050565b6000611d8982611d62565b611d938185611d6d565b9350611da3818560208601611725565b611dac8161174f565b840191505092915050565b6000608082019050611dcc6000830187611850565b611dd96020830186611850565b611de66040830185611966565b8181036060830152611df88184611d7e565b905095945050505050565b600081519050611e128161167a565b92915050565b600060208284031215611e2e57611e2d611644565b5b6000611e3c84828501611e03565b91505092915050565b7f4e487b7100000000000000000000000000000000000000000000000000000000600052601260045260246000fd5b6000604082019050611e896000830185611850565b611e966020830184611966565b939250505056fea26469706673582212207f914f474c721065a197ebca1f18f37537044a2f723eedd31ee6b014c399545564736f6c63430008180033",
  "linkReferences": {},
  "deployedLinkReferences": {}
}